:08000000803102288731FD2F39
:100C1400FB007B082000A000A101A2012008F00035
:100C24002108F1002208F2008E30A3002308F3000B
:100C3400F40186315E267008F8007108F900720824
:100C4400FA000800210019088739383899008E12F3
:100C540025001308F0390C38930020001C08FC39D7
:100C640002389C009B309B001C151B0886310A2609
:100C7400863178082000A7007908A8007A08A9001E
:100C8400CD30A4004C30A5003E30A6008731492762
:100C9400863120002408B4002508B5002608B600D3
:100CA4008631C226863120003508250092002000B6
:100CB4003408250091005D2E73080319662E72080E
:100CC40071047004031D772E0030F0000030F10031
:100CD4000030F20008000130F5007508F307013018
:100CE400F236F10CF00C890B722EFE3072050319EA
:100CF400902E6D2E0130F5007508F3070130F007D2
:100D0400003003180130F107003003180130F207F6
:100D14000130F236F10CF00C890B8B2EFF3072058A
:100D240003199D2E7C2E0130F3020130F035F10DB4
:100D3400F20D890B982EF11BA32E023073020318B7
:100D4400952E7318AB2EFF30F0057F30F105FF3080
:100D5400F2050310F30C7308F500F601F7011030E7
:100D6400F535F60DF70D890BB22E7508F0047608EB
:100D7400F1047708F204740803190800F217080054
:100D840020003408B8003508B9003608BA0003104A
:100D9400390D3A0DBB003B08C1004108031DDB2E91
:100DA4000030B7000030B6000030B5000030B400A9
:100DB40008003408B8003508B9003608BA001730FE
:100DC400BA36B90CB80C890BE22E3808BB003B08C4
:100DD400BC00B517FF30B405FF30B5050030B605CB
:100DE4003408BD003508BE003608BF00C0018E308F
:100DF400C102C11F192F4108803A8F3E03180B2FDF
:100E04000030B7000030B6000030B5000030B40048
:100E140008000130C036BF0CBE0CBD0C890B0C2F72
:100E24000130B8003808C1070319322F0B2F1830CE
:100E34004102031C2F2F0030B7000030B6000030F1
:100E4400B5000030B40008000130BD35BE0DBF0D43
:100E5400C00D890B272F0130C1024108031D262F25
:100E64003C080319402FBD09BE09BF09C009BD0ACA
:100E74000319BE0A0319BF0A0319C00A4008B700C0
:100E84003F08B6003E08B5003D08B4000800200045
:100E94002408AA002508AB002608AC0003102B0D7B
:100EA4002C0DAD002D08AE002E08031D602F003060
:100EB400A4000030A5000030A60008002708AA00FE
:100EC4002808AB002908AC0003102B0D2C0DAD0035
:100ED4002D08B3003308031D762F0030A400003022
:100EE400A5000030A600080033087B3EAA002A08AB
:100EF400AE072408AA002508AB002608AC00103071
:100F0400AC36AB0CAA0C890B822F2A08AD002D0835
:100F1400B3002708AA002808AB002908AC00103049
:100F2400AC36AB0CAA0C890B922F2A08AD002D0805
:100F3400B3068030AA002A08B305A517A817FF3006
:100F4400A705FF30A8050030A9050030AF00003028
:100F5400B0000030B1000730AA002A08B200241CF7
:100F6400B92F2708AF072808B03D2908B13D013043
:100F7400A636A50CA40C890BBA2F0130A735A80DF1
:100F8400A90D890BC02F0130B202031DB12F093006
:100F9400AA002A08B200241CD52F2708AF07280866
:100FA400B03D2908B13D0130A636A50CA40C890B2F
:100FB400D62F0130B136B00CAF0C890BDC2F0130C9
:100FC400B202031DCD2F2F08F0003008F1003108C4
:100FD400F2002E08AA002A08F3003308AB002B08FD
:100FE400F40086315E2670082000A4007108A50074
:0C0FF4007208A600080020008631242EA0
:020000040001F9
:04000E00FCFFFFFFF5
:00000001FF
